{
  "contractName": "CampusAssetBooking",
  "abi": [
    {
      "inputs": [],
      "stateMutability": "nonpayable",
      "type": "constructor"
    },
    {
      "anonymous": false,
      "inputs": [
        {
          "indexed": true,
          "internalType": "uint256",
          "name": "assetId",
          "type": "uint256"
        }
      ],
      "name": "AssetDeactivated",
      "type": "event"
    },
    {
      "anonymous": false,
      "inputs": [
        {
          "indexed": true,
          "internalType": "uint256",
          "name": "assetId",
          "type": "uint256"
        },
        {
          "indexed": false,
          "internalType": "string",
          "name": "name",
          "type": "string"
        },
        {
          "indexed": false,
          "internalType": "uint256",
          "name": "hourlyFeeWei",
          "type": "uint256"
        }
      ],
      "name": "AssetRegistered",
      "type": "event"
    },
    {
      "anonymous": false,
      "inputs": [
        {
          "indexed": true,
          "internalType": "uint256",
          "name": "assetId",
          "type": "uint256"
        },
        {
          "indexed": false,
          "internalType": "string",
          "name": "name",
          "type": "string"
        },
        {
          "indexed": false,
          "internalType": "uint256",
          "name": "hourlyFeeWei",
          "type": "uint256"
        }
      ],
      "name": "AssetUpdated",
      "type": "event"
    },
    {
      "anonymous": false,
      "inputs": [
        {
          "indexed": true,
          "internalType": "uint256",
          "name": "bookingId",
          "type": "uint256"
        },
        {
          "indexed": false,
          "internalType": "uint256",
          "name": "refund",
          "type": "uint256"
        }
      ],
      "name": "BookingCancelledByAdmin",
      "type": "event"
    },
    {
      "anonymous": false,
      "inputs": [
        {
          "indexed": true,
          "internalType": "uint256",
          "name": "bookingId",
          "type": "uint256"
        },
        {
          "indexed": false,
          "internalType": "uint256",
          "name": "refund",
          "type": "uint256"
        }
      ],
      "name": "BookingCancelledByUser",
      "type": "event"
    },
    {
      "anonymous": false,
      "inputs": [
        {
          "indexed": true,
          "internalType": "uint256",
          "name": "bookingId",
          "type": "uint256"
        },
        {
          "indexed": true,
          "internalType": "uint256",
          "name": "assetId",
          "type": "uint256"
        },
        {
          "indexed": true,
          "internalType": "address",
          "name": "bookedBy",
          "type": "address"
        },
        {
          "indexed": false,
          "internalType": "uint256",
          "name": "startTime",
          "type": "uint256"
        },
        {
          "indexed": false,
          "internalType": "uint256",
          "name": "endTime",
          "type": "uint256"
        },
        {
          "indexed": false,
          "internalType": "uint256",
          "name": "amountPaid",
          "type": "uint256"
        }
      ],
      "name": "BookingCreated",
      "type": "event"
    },
    {
      "anonymous": false,
      "inputs": [
        {
          "indexed": true,
          "internalType": "address",
          "name": "user",
          "type": "address"
        },
        {
          "indexed": false,
          "internalType": "uint256",
          "name": "timestamp",
          "type": "uint256"
        }
      ],
      "name": "UserRegistered",
      "type": "event"
    },
    {
      "anonymous": false,
      "inputs": [
        {
          "indexed": true,
          "internalType": "address",
          "name": "user",
          "type": "address"
        },
        {
          "indexed": false,
          "internalType": "uint256",
          "name": "timestamp",
          "type": "uint256"
        }
      ],
      "name": "UserRemoved",
      "type": "event"
    },
    {
      "inputs": [],
      "name": "admin",
      "outputs": [
        {
          "internalType": "address",
          "name": "",
          "type": "address"
        }
      ],
      "stateMutability": "view",
      "type": "function",
      "constant": true
    },
    {
      "inputs": [
        {
          "internalType": "uint256",
          "name": "",
          "type": "uint256"
        }
      ],
      "name": "assetIds",
      "outputs": [
        {
          "internalType": "uint256",
          "name": "",
          "type": "uint256"
        }
      ],
      "stateMutability": "view",
      "type": "function",
      "constant": true
    },
    {
      "inputs": [
        {
          "internalType": "uint256",
          "name": "",
          "type": "uint256"
        }
      ],
      "name": "assets",
      "outputs": [
        {
          "internalType": "uint256",
          "name": "id",
          "type": "uint256"
        },
        {
          "internalType": "string",
          "name": "name",
          "type": "string"
        },
        {
          "internalType": "string",
          "name": "description",
          "type": "string"
        },
        {
          "internalType": "string",
          "name": "category",
          "type": "string"
        },
        {
          "internalType": "uint256",
          "name": "hourlyFeeWei",
          "type": "uint256"
        },
        {
          "internalType": "bool",
          "name": "active",
          "type": "bool"
        },
        {
          "internalType": "address",
          "name": "registeredBy",
          "type": "address"
        },
        {
          "internalType": "uint256",
          "name": "createdAt",
          "type": "uint256"
        }
      ],
      "stateMutability": "view",
      "type": "function",
      "constant": true
    },
    {
      "inputs": [
        {
          "internalType": "uint256",
          "name": "",
          "type": "uint256"
        }
      ],
      "name": "bookingIds",
      "outputs": [
        {
          "internalType": "uint256",
          "name": "",
          "type": "uint256"
        }
      ],
      "stateMutability": "view",
      "type": "function",
      "constant": true
    },
    {
      "inputs": [
        {
          "internalType": "uint256",
          "name": "",
          "type": "uint256"
        }
      ],
      "name": "bookings",
      "outputs": [
        {
          "internalType": "uint256",
          "name": "id",
          "type": "uint256"
        },
        {
          "internalType": "uint256",
          "name": "assetId",
          "type": "uint256"
        },
        {
          "internalType": "address",
          "name": "bookedBy",
          "type": "address"
        },
        {
          "internalType": "uint256",
          "name": "startTime",
          "type": "uint256"
        },
        {
          "internalType": "uint256",
          "name": "endTime",
          "type": "uint256"
        },
        {
          "internalType": "uint256",
          "name": "amountPaid",
          "type": "uint256"
        },
        {
          "internalType": "enum CampusAssetBooking.BookingStatus",
          "name": "status",
          "type": "uint8"
        },
        {
          "internalType": "uint256",
          "name": "createdAt",
          "type": "uint256"
        },
        {
          "internalType": "uint256",
          "name": "cancelledAt",
          "type": "uint256"
        },
        {
          "internalType": "uint256",
          "name": "refundAmount",
          "type": "uint256"
        }
      ],
      "stateMutability": "view",
      "type": "function",
      "constant": true
    },
    {
      "inputs": [
        {
          "internalType": "uint256",
          "name": "",
          "type": "uint256"
        }
      ],
      "name": "registeredUserList",
      "outputs": [
        {
          "internalType": "address",
          "name": "",
          "type": "address"
        }
      ],
      "stateMutability": "view",
      "type": "function",
      "constant": true
    },
    {
      "inputs": [
        {
          "internalType": "address",
          "name": "",
          "type": "address"
        }
      ],
      "name": "registeredUsers",
      "outputs": [
        {
          "internalType": "bool",
          "name": "",
          "type": "bool"
        }
      ],
      "stateMutability": "view",
      "type": "function",
      "constant": true
    },
    {
      "stateMutability": "payable",
      "type": "receive",
      "payable": true
    },
    {
      "inputs": [
        {
          "internalType": "address",
          "name": "user",
          "type": "address"
        }
      ],
      "name": "registerUser",
      "outputs": [],
      "stateMutability": "nonpayable",
      "type": "function"
    },
    {
      "inputs": [
        {
          "internalType": "address[]",
          "name": "users",
          "type": "address[]"
        }
      ],
      "name": "registerUsers",
      "outputs": [],
      "stateMutability": "nonpayable",
      "type": "function"
    },
    {
      "inputs": [
        {
          "internalType": "address",
          "name": "user",
          "type": "address"
        }
      ],
      "name": "removeUser",
      "outputs": [],
      "stateMutability": "nonpayable",
      "type": "function"
    },
    {
      "inputs": [
        {
          "internalType": "string",
          "name": "name",
          "type": "string"
        },
        {
          "internalType": "string",
          "name": "description",
          "type": "string"
        },
        {
          "internalType": "string",
          "name": "category",
          "type": "string"
        },
        {
          "internalType": "uint256",
          "name": "hourlyFeeWei",
          "type": "uint256"
        }
      ],
      "name": "registerAsset",
      "outputs": [
        {
          "internalType": "uint256",
          "name": "assetId",
          "type": "uint256"
        }
      ],
      "stateMutability": "nonpayable",
      "type": "function"
    },
    {
      "inputs": [
        {
          "internalType": "uint256",
          "name": "assetId",
          "type": "uint256"
        },
        {
          "internalType": "string",
          "name": "name",
          "type": "string"
        },
        {
          "internalType": "string",
          "name": "description",
          "type": "string"
        },
        {
          "internalType": "string",
          "name": "category",
          "type": "string"
        },
        {
          "internalType": "uint256",
          "name": "hourlyFeeWei",
          "type": "uint256"
        }
      ],
      "name": "updateAsset",
      "outputs": [],
      "stateMutability": "nonpayable",
      "type": "function"
    },
    {
      "inputs": [
        {
          "internalType": "uint256",
          "name": "assetId",
          "type": "uint256"
        }
      ],
      "name": "deactivateAsset",
      "outputs": [],
      "stateMutability": "nonpayable",
      "type": "function"
    },
    {
      "inputs": [
        {
          "internalType": "uint256",
          "name": "assetId",
          "type": "uint256"
        },
        {
          "internalType": "uint256",
          "name": "startTime",
          "type": "uint256"
        },
        {
          "internalType": "uint256",
          "name": "endTime",
          "type": "uint256"
        }
      ],
      "name": "bookAsset",
      "outputs": [
        {
          "internalType": "uint256",
          "name": "bookingId",
          "type": "uint256"
        }
      ],
      "stateMutability": "payable",
      "type": "function",
      "payable": true
    },
    {
      "inputs": [
        {
          "internalType": "uint256",
          "name": "bookingId",
          "type": "uint256"
        }
      ],
      "name": "adminCancelBooking",
      "outputs": [],
      "stateMutability": "nonpayable",
      "type": "function"
    },
    {
      "inputs": [
        {
          "internalType": "uint256",
          "name": "bookingId",
          "type": "uint256"
        }
      ],
      "name": "userCancelBooking",
      "outputs": [],
      "stateMutability": "nonpayable",
      "type": "function"
    },
    {
      "inputs": [
        {
          "internalType": "uint256",
          "name": "assetId",
          "type": "uint256"
        }
      ],
      "name": "getAsset",
      "outputs": [
        {
          "components": [
            {
              "internalType": "uint256",
              "name": "id",
              "type": "uint256"
            },
            {
              "internalType": "string",
              "name": "name",
              "type": "string"
            },
            {
              "internalType": "string",
              "name": "description",
              "type": "string"
            },
            {
              "internalType": "string",
              "name": "category",
              "type": "string"
            },
            {
              "internalType": "uint256",
              "name": "hourlyFeeWei",
              "type": "uint256"
            },
            {
              "internalType": "bool",
              "name": "active",
              "type": "bool"
            },
            {
              "internalType": "address",
              "name": "registeredBy",
              "type": "address"
            },
            {
              "internalType": "uint256",
              "name": "createdAt",
              "type": "uint256"
            }
          ],
          "internalType": "struct CampusAssetBooking.Asset",
          "name": "",
          "type": "tuple"
        }
      ],
      "stateMutability": "view",
      "type": "function",
      "constant": true
    },
    {
      "inputs": [],
      "name": "getAllAssetIds",
      "outputs": [
        {
          "internalType": "uint256[]",
          "name": "",
          "type": "uint256[]"
        }
      ],
      "stateMutability": "view",
      "type": "function",
      "constant": true
    },
    {
      "inputs": [
        {
          "internalType": "uint256",
          "name": "bookingId",
          "type": "uint256"
        }
      ],
      "name": "getBooking",
      "outputs": [
        {
          "components": [
            {
              "internalType": "uint256",
              "name": "id",
              "type": "uint256"
            },
            {
              "internalType": "uint256",
              "name": "assetId",
              "type": "uint256"
            },
            {
              "internalType": "address",
              "name": "bookedBy",
              "type": "address"
            },
            {
              "internalType": "uint256",
              "name": "startTime",
              "type": "uint256"
            },
            {
              "internalType": "uint256",
              "name": "endTime",
              "type": "uint256"
            },
            {
              "internalType": "uint256",
              "name": "amountPaid",
              "type": "uint256"
            },
            {
              "internalType": "enum CampusAssetBooking.BookingStatus",
              "name": "status",
              "type": "uint8"
            },
            {
              "internalType": "uint256",
              "name": "createdAt",
              "type": "uint256"
            },
            {
              "internalType": "uint256",
              "name": "cancelledAt",
              "type": "uint256"
            },
            {
              "internalType": "uint256",
              "name": "refundAmount",
              "type": "uint256"
            }
          ],
          "internalType": "struct CampusAssetBooking.Booking",
          "name": "",
          "type": "tuple"
        }
      ],
      "stateMutability": "view",
      "type": "function",
      "constant": true
    },
    {
      "inputs": [],
      "name": "getAllBookingIds",
      "outputs": [
        {
          "internalType": "uint256[]",
          "name": "",
          "type": "uint256[]"
        }
      ],
      "stateMutability": "view",
      "type": "function",
      "constant": true
    },
    {
      "inputs": [
        {
          "internalType": "uint256",
          "name": "assetId",
          "type": "uint256"
        }
      ],
      "name": "getAssetBookings",
      "outputs": [
        {
          "internalType": "uint256[]",
          "name": "",
          "type": "uint256[]"
        }
      ],
      "stateMutability": "view",
      "type": "function",
      "constant": true
    },
    {
      "inputs": [
        {
          "internalType": "address",
          "name": "user",
          "type": "address"
        }
      ],
      "name": "getUserBookings",
      "outputs": [
        {
          "internalType": "uint256[]",
          "name": "",
          "type": "uint256[]"
        }
      ],
      "stateMutability": "view",
      "type": "function",
      "constant": true
    },
    {
      "inputs": [],
      "name": "getRegisteredUsers",
      "outputs": [
        {
          "internalType": "address[]",
          "name": "",
          "type": "address[]"
        }
      ],
      "stateMutability": "view",
      "type": "function",
      "constant": true
    },
    {
      "inputs": [
        {
          "internalType": "uint256",
          "name": "assetId",
          "type": "uint256"
        },
        {
          "internalType": "uint256",
          "name": "startTime",
          "type": "uint256"
        },
        {
          "internalType": "uint256",
          "name": "endTime",
          "type": "uint256"
        }
      ],
      "name": "computeFee",
      "outputs": [
        {
          "internalType": "uint256",
          "name": "fee",
          "type": "uint256"
        }
      ],
      "stateMutability": "view",
      "type": "function",
      "constant": true
    },
    {
      "inputs": [
        {
          "internalType": "uint256",
          "name": "assetId",
          "type": "uint256"
        },
        {
          "internalType": "uint256",
          "name": "startTime",
          "type": "uint256"
        },
        {
          "internalType": "uint256",
          "name": "endTime",
          "type": "uint256"
        }
      ],
      "name": "isSlotAvailable",
      "outputs": [
        {
          "internalType": "bool",
          "name": "",
          "type": "bool"
        }
      ],
      "stateMutability": "view",
      "type": "function",
      "constant": true
    },
    {
      "inputs": [],
      "name": "contractBalance",
      "outputs": [
        {
          "internalType": "uint256",
          "name": "",
          "type": "uint256"
        }
      ],
      "stateMutability": "view",
      "type": "function",
      "constant": true
    },
    {
      "inputs": [],
      "name": "withdrawPenalties",
      "outputs": [],
      "stateMutability": "nonpayable",
      "type": "function"
    }
  ],
  "bytecode": "0x608060405260018055600160025534801561001957600080fd5b50336000806101000a81548173ffffffffffffffffffffffffffffffffffffffff021916908373ffffffffffffffffffffffffffffffffffffffff1602179055506001600760003373ffffffffffffffffffffffffffffffffffffffff1673ffffffffffffffffffffffffffffffffffffffff16815260200190815260200160002060006101000a81548160ff0219169083151502179055506008339080600181540180825580915050600190039060005260206000200160009091909190916101000a81548173ffffffffffffffffffffffffffffffffffffffff021916908373ffffffffffffffffffffffffffffffffffffffff160217905550614c7b806101246000396000f3fe6080604052600436106101a05760003560e01c80638b7afe2e116100ec578063c687857c1161008a578063e5e9a9bb11610064578063e5e9a9bb14610644578063eac8f5b81461066d578063ef3197c8146106aa578063f851a440146106e7576101a7565b8063c687857c146105ac578063cf35bdd0146105d5578063e122f90714610619576101a7565b80639afb7c9b116100c65780639afb7c9b146104f2578063addf14d81461052f578063ae759b9614610546578063c2e6a5f514610583576101a7565b80638b7afe2e1461046e5780638cae97d51461049957806398575188146104c9576101a7565b80636a5c841a1161015957806374193af41161013357806374193af4146103a057806387541ed6146103c95780638875aae1146104065780638a5df1fb14610443576101a7565b80636a5c841a146102fb5780637073c072146103385780637143f94e14610363576101a7565b80630d80cb42146101ac5780630e50cee5146101e95780631dab301e146102265780632199d5cd1461026c5780632d0a7cd514610295578063319af5e0146102d2576101a7565b366101a757005b600080fd5b3480156101b857600080fd5b506101d360048036038101906101ce9190612fc6565b610712565b6040516101e0919061309e565b60405180910390f35b3480156101f557600080fd5b50610210600480360381019061020b9190613117565b610ab1565b60405161021d919061315f565b60405180910390f35b34801561023257600080fd5b5061024d6004803603810190610248919061317a565b610ad1565b6040516102639a9998979695949392919061322d565b60405180910390f35b34801561027857600080fd5b50610293600480360381019061028e9190613117565b610b52565b005b3480156102a157600080fd5b506102bc60048036038101906102b791906132c9565b610de8565b6040516102c9919061315f565b60405180910390f35b3480156102de57600080fd5b506102f960048036038101906102f4919061317a565b610eca565b005b34801561030757600080fd5b50610322600480360381019061031d919061317a565b61101c565b60405161032f9190613415565b60405180910390f35b34801561034457600080fd5b5061034d61112b565b60405161035a91906134e0565b60405180910390f35b34801561036f57600080fd5b5061038a6004803603810190610385919061317a565b6111b9565b60405161039791906135b1565b60405180910390f35b3480156103ac57600080fd5b506103c760048036038101906103c2919061317a565b611224565b005b3480156103d557600080fd5b506103f060048036038101906103eb919061317a565b61152a565b6040516103fd919061309e565b60405180910390f35b34801561041257600080fd5b5061042d6004803603810190610428919061317a565b61154e565b60405161043a91906135d3565b60405180910390f35b34801561044f57600080fd5b5061045861158d565b60405161046591906135b1565b60405180910390f35b34801561047a57600080fd5b506104836115e5565b604051610490919061309e565b60405180910390f35b6104b360048036038101906104ae91906132c9565b6115ed565b6040516104c0919061309e565b60405180910390f35b3480156104d557600080fd5b506104f060048036038101906104eb9190613117565b611b1f565b005b3480156104fe57600080fd5b50610519600480360381019061051491906132c9565b611d70565b604051610526919061309e565b60405180910390f35b34801561053b57600080fd5b50610544611e62565b005b34801561055257600080fd5b5061056d6004803603810190610568919061317a565b612009565b60405161057a919061309e565b60405180910390f35b34801561058f57600080fd5b506105aa60048036038101906105a5919061317a565b61202d565b005b3480156105b857600080fd5b506105d360048036038101906105ce91906135ee565b61224f565b005b3480156105e157600080fd5b506105fc60048036038101906105f7919061317a565b6123e5565b60405161061098979695949392919061375a565b60405180910390f35b34801561062557600080fd5b5061062e6125f2565b60405161063b91906135b1565b60405180910390f35b34801561065057600080fd5b5061066b60048036038101906106669190613843565b61264a565b005b34801561067957600080fd5b50610694600480360381019061068f919061317a565b612957565b6040516106a191906139a7565b60405180910390f35b3480156106b657600080fd5b506106d160048036038101906106cc9190613117565b612bca565b6040516106de91906135b1565b60405180910390f35b3480156106f357600080fd5b506106fc612c61565b60405161070991906135d3565b60405180910390f35b60008060009054906101000a900473ffffffffffffffffffffffffffffffffffffffff1673ffffffffffffffffffffffffffffffffffffffff163373ffffffffffffffffffffffffffffffffffffffff16146107a3576040517f08c379a000000000000000000000000000000000000000000000000000000000815260040161079a90613a3b565b60405180910390fd5b600088889050116107e9576040517f08c379a00000000000000000000000000000000000000000000000000000000081526004016107e090613aa7565b60405180910390fd5b6000821161082c576040517f08c379a000000000000000000000000000000000000000000000000000000000815260040161082390613b13565b60405180910390fd5b6001600081548092919061083f90613b62565b91905055905060405180610100016040528082815260200189898080601f016020809104026020016040519081016040528093929190818152602001838380828437600081840152601f19601f82011690508083019250505050505050815260200187878080601f016020809104026020016040519081016040528093929190818152602001838380828437600081840152601f19601f82011690508083019250505050505050815260200185858080601f016020809104026020016040519081016040528093929190818152602001838380828437600081840152601f19601f8201169050808301925050505050505081526020018381526020016001151581526020013373ffffffffffffffffffffffffffffffffffffffff16815260200142815250600360008381526020019081526020016000206000820151816000015560208201518160010190816109969190613de5565b5060408201518160020190816109ac9190613de5565b5060608201518160030190816109c29190613de5565b506080820151816004015560a08201518160050160006101000a81548160ff02191690831515021790555060c08201518160050160016101000a81548173ffffffffffffffffffffffffffffffffffffffff021916908373ffffffffffffffffffffffffffffffffffffffff16021790555060e082015181600601559050506004819080600181540180825580915050600190039060005260206000200160009091909190915055807f11c24514caea013960c65f2cc666d0cd125b940002413a6e09df458c2663920f898985604051610a9e93929190613ef3565b60405180910390a2979650505050505050565b60076020528060005260406000206000915054906101000a900460ff1681565b60056020528060005260406000206000915090508060000154908060010154908060020160009054906101000a900473ffffffffffffffffffffffffffffffffffffffff16908060030154908060040154908060050154908060060160009054906101000a900460ff1690806007015490806008015490806009015490508a565b60008054906101000a900473ffffffffffffffffffffffffffffffffffffffff1673ffffffffffffffffffffffffffffffffffffffff163373ffffffffffffffffffffffffffffffffffffffff1614610be0576040517f08c379a0000000000000000000000000000000000000000000000000000000008152600401610bd790613a3b565b60405180910390fd5b600073ffffffffffffffffffffffffffffffffffffffff168173ffffffffffffffffffffffffffffffffffffffff1603610c4f576040517f08c379a0000000000000000000000000000000000000000000000000000000008152600401610c4690613f71565b60405180910390fd5b600760008273ffffffffffffffffffffffffffffffffffffffff1673ffffffffffffffffffffffffffffffffffffffff16815260200190815260200160002060009054906101000a900460ff1615610cdc576040517f08c379a0000000000000000000000000000000000000000000000000000000008152600401610cd390614003565b60405180910390fd5b6001600760008373ffffffffffffffffffffffffffffffffffffffff1673ffffffffffffffffffffffffffffffffffffffff16815260200190815260200160002060006101000a81548160ff0219169083151502179055506008819080600181540180825580915050600190039060005260206000200160009091909190916101000a81548173ffffffffffffffffffffffffffffffffffffffff021916908373ffffffffffffffffffffffffffffffffffffffff1602179055508073ffffffffffffffffffffffffffffffffffffffff167fe29d35093005f4d575e1003753426b57a7f64378ba73332eef9c6ccc2b8decd642604051610ddd919061309e565b60405180910390a250565b60008060096000868152602001908152602001600020905060005b8180549050811015610ebc57600060056000848481548110610e2857610e27614023565b5b90600052602060002001548152602001908152602001600020905060006002811115610e5757610e566131b6565b5b8160060160009054906101000a900460ff166002811115610e7b57610e7a6131b6565b5b03610ea857806004015486108015610e965750806003015485115b15610ea75760009350505050610ec3565b5b508080610eb490613b62565b915050610e03565b5060019150505b9392505050565b60008054906101000a900473ffffffffffffffffffffffffffffffffffffffff1673ffffffffffffffffffffffffffffffffffffffff163373ffffffffffffffffffffffffffffffffffffffff1614610f58576040517f08c379a0000000000000000000000000000000000000000000000000000000008152600401610f4f90613a3b565b60405180910390fd5b806003600082815260200190815260200160002060050160009054906101000a900460ff16610fbc576040517f08c379a0000000000000000000000000000000000000000000000000000000008152600401610fb3906140c4565b60405180910390fd5b60006003600084815260200190815260200160002060050160006101000a81548160ff021916908315150217905550817f24eeae42f647ed9085bd63c948c8201b093844d2ad153d02e9c42950d0306ccc60405160405180910390a25050565b611024612e49565b600560008381526020019081526020016000206040518061014001604052908160008201548152602001600182015481526020016002820160009054906101000a900473ffffffffffffffffffffffffffffffffffffffff1673ffffffffffffffffffffffffffffffffffffffff1673ffffffffffffffffffffffffffffffffffffffff1681526020016003820154815260200160048201548152602001600582015481526020016006820160009054906101000a900460ff1660028111156110f0576110ef6131b6565b5b6002811115611102576111016131b6565b5b815260200160078201548152602001600882015481526020016009820154815250509050919050565b606060088054806020026020016040519081016040528092919081815260200182805480156111af57602002820191906000526020600020905b8160009054906101000a900473ffffffffffffffffffffffffffffffffffffffff1673ffffffffffffffffffffffffffffffffffffffff1681526020019060010190808311611165575b5050505050905090565b60606009600083815260200190815260200160002080548060200260200160405190810160405280929190818152602001828054801561121857602002820191906000526020600020905b815481526020019060010190808311611204575b50505050509050919050565b600760003373ffffffffffffffffffffffffffffffffffffffff1673ffffffffffffffffffffffffffffffffffffffff16815260200190815260200160002060009054906101000a900460ff166112b0576040517f08c379a00000000000000000000000000000000000000000000000000000000081526004016112a790614156565b60405180910390fd5b806000811180156112c2575060025481105b611301576040517f08c379a00000000000000000000000000000000000000000000000000000000081526004016112f8906141c2565b60405180910390fd5b60006005600084815260200190815260200160002090503373ffffffffffffffffffffffffffffffffffffffff168160020160009054906101000a900473ffffffffffffffffffffffffffffffffffffffff1673ffffffffffffffffffffffffffffffffffffffff16146113aa576040517f08c379a00000000000000000000000000000000000000000000000000000000081526004016113a19061422e565b60405180910390fd5b600060028111156113be576113bd6131b6565b5b8160060160009054906101000a900460ff1660028111156113e2576113e16131b6565b5b14611422576040517f08c379a0000000000000000000000000000000000000000000000000000000008152600401611419906142c0565b60405180910390fd5b80600301544210611468576040517f08c379a000000000000000000000000000000000000000000000000000000000815260040161145f90614352565b60405180910390fd5b60008160030154620151804261147e9190614372565b1161148f57816005015490506114a3565b600282600501546114a091906143d5565b90505b60028260060160006101000a81548160ff021916908360028111156114cb576114ca6131b6565b5b02179055504282600801819055508082600901819055506114ec3382612c85565b837fb38205e9efec0bf0a081df63309a00c94fdab5c18acedcdffa477e157060f6008260405161151c919061309e565b60405180910390a250505050565b6004818154811061153a57600080fd5b906000526020600020016000915090505481565b6008818154811061155e57600080fd5b906000526020600020016000915054906101000a900473ffffffffffffffffffffffffffffffffffffffff1681565b606060068054806020026020016040519081016040528092919081815260200182805480156115db57602002820191906000526020600020905b8154815260200190600101908083116115c7575b5050505050905090565b600047905090565b6000600760003373ffffffffffffffffffffffffffffffffffffffff1673ffffffffffffffffffffffffffffffffffffffff16815260200190815260200160002060009054906101000a900460ff1661167b576040517f08c379a000000000000000000000000000000000000000000000000000000000815260040161167290614156565b60405180910390fd5b836003600082815260200190815260200160002060050160009054906101000a900460ff166116df576040517f08c379a00000000000000000000000000000000000000000000000000000000081526004016116d6906140c4565b60405180910390fd5b42841015611722576040517f08c379a000000000000000000000000000000000000000000000000000000000815260040161171990614478565b60405180910390fd5b838311611764576040517f08c379a000000000000000000000000000000000000000000000000000000000815260040161175b9061450a565b60405180910390fd5b60008484611772919061452a565b9050610e108110156117b9576040517f08c379a00000000000000000000000000000000000000000000000000000000081526004016117b0906145aa565b60405180910390fd5b6000610e10826117c991906145ca565b14611809576040517f08c379a00000000000000000000000000000000000000000000000000000000081526004016118009061466d565b60405180910390fd5b6000610e108261181991906143d5565b9050600060036000898152602001908152602001600020600401548261183f919061468d565b9050803414611883576040517f08c379a000000000000000000000000000000000000000000000000000000000815260040161187a90614741565b60405180910390fd5b61188e888888612d40565b600260008154809291906118a190613b62565b9190505594506040518061014001604052808681526020018981526020013373ffffffffffffffffffffffffffffffffffffffff16815260200188815260200187815260200134815260200160006002811115611901576119006131b6565b5b815260200142815260200160008152602001600081525060056000878152602001908152602001600020600082015181600001556020820151816001015560408201518160020160006101000a81548173ffffffffffffffffffffffffffffffffffffffff021916908373ffffffffffffffffffffffffffffffffffffffff160217905550606082015181600301556080820151816004015560a0820151816005015560c08201518160060160006101000a81548160ff021916908360028111156119cf576119ce6131b6565b5b021790555060e0820151816007015561010082015181600801556101208201518160090155905050600685908060018154018082558091505060019003906000526020600020016000909190919091505560096000898152602001908152602001600020859080600181540180825580915050600190039060005260206000200160009091909190915055600a60003373ffffffffffffffffffffffffffffffffffffffff1673ffffffffffffffffffffffffffffffffffffffff1681526020019081526020016000208590806001815401808255809150506001900390600052602060002001600090919091909150553373ffffffffffffffffffffffffffffffffffffffff1688867f1afaf48ea2dfb98ade4ffb74cf3da0b54cb835e92d9872a1b14603a88fba7ec88a8a34604051611b0c93929190614761565b60405180910390a4505050509392505050565b60008054906101000a900473ffffffffffffffffffffffffffffffffffffffff1673ffffffffffffffffffffffffffffffffffffffff163373ffffffffffffffffffffffffffffffffffffffff1614611bad576040517f08c379a0000000000000000000000000000000000000000000000000000000008152600401611ba490613a3b565b60405180910390fd5b600760008273ffffffffffffffffffffffffffffffffffffffff1673ffffffffffffffffffffffffffffffffffffffff16815260200190815260200160002060009054906101000a900460ff16611c39576040517f08c379a0000000000000000000000000000000000000000000000000000000008152600401611c30906147e4565b60405180910390fd5b60008054906101000a900473ffffffffffffffffffffffffffffffffffffffff1673ffffffffffffffffffffffffffffffffffffffff168173ffffffffffffffffffffffffffffffffffffffff1603611cc7576040517f08c379a0000000000000000000000000000000000000000000000000000000008152600401611cbe90614876565b60405180910390fd5b6000600760008373ffffffffffffffffffffffffffffffffffffffff1673ffffffffffffffffffffffffffffffffffffffff16815260200190815260200160002060006101000a81548160ff0219169083151502179055508073ffffffffffffffffffffffffffffffffffffffff167ff62c903ca15668006710c4411b74e3acb9efabe0d10bece1a2912050499f7efd42604051611d65919061309e565b60405180910390a250565b6000836003600082815260200190815260200160002060050160009054906101000a900460ff16611dd6576040517f08c379a0000000000000000000000000000000000000000000000000000000008152600401611dcd906140c4565b60405180910390fd5b838311611e18576040517f08c379a0000000000000000000000000000000000000000000000000000000008152600401611e0f906148e2565b60405180910390fd5b6000610e108585611e29919061452a565b611e3391906143d5565b9050600360008781526020019081526020016000206004015481611e57919061468d565b925050509392505050565b60008054906101000a900473ffffffffffffffffffffffffffffffffffffffff1673ffffffffffffffffffffffffffffffffffffffff163373ffffffffffffffffffffffffffffffffffffffff1614611ef0576040517f08c379a0000000000000000000000000000000000000000000000000000000008152600401611ee790613a3b565b60405180910390fd5b600047905060008111611f38576040517f08c379a0000000000000000000000000000000000000000000000000000000008152600401611f2f90614974565b60405180910390fd5b60008060009054906101000a900473ffffffffffffffffffffffffffffffffffffffff1673ffffffffffffffffffffffffffffffffffffffff1682604051611f7f906149c5565b60006040518083038185875af1925050503d8060008114611fbc576040519150601f19603f3d011682016040523d82523d6000602084013e611fc1565b606091505b5050905080612005576040517f08c379a0000000000000000000000000000000000000000000000000000000008152600401611ffc90614a26565b60405180910390fd5b5050565b6006818154811061201957600080fd5b906000526020600020016000915090505481565b60008054906101000a900473ffffffffffffffffffffffffffffffffffffffff1673ffffffffffffffffffffffffffffffffffffffff163373ffffffffffffffffffffffffffffffffffffffff16146120bb576040517f08c379a00000000000000000000000000000000000000000000000000000000081526004016120b290613a3b565b60405180910390fd5b806000811180156120cd575060025481105b61210c576040517f08c379a0000000000000000000000000000000000000000000000000000000008152600401612103906141c2565b60405180910390fd5b600060056000848152602001908152602001600020905060006002811115612137576121366131b6565b5b8160060160009054906101000a900460ff16600281111561215b5761215a6131b6565b5b1461219b576040517f08c379a0000000000000000000000000000000000000000000000000000000008152600401612192906142c0565b60405180910390fd5b60008160050154905060018260060160006101000a81548160ff021916908360028111156121cc576121cb6131b6565b5b02179055504282600801819055508082600901819055506122118260020160009054906101000a900473ffffffffffffffffffffffffffffffffffffffff1682612c85565b837fa70389aed2c39f658c6802af9cb0c9da8ea061e68107b5623528c23d469b6c6782604051612241919061309e565b60405180910390a250505050565b60008054906101000a900473ffffffffffffffffffffffffffffffffffffffff1673ffffffffffffffffffffffffffffffffffffffff163373ffffffffffffffffffffffffffffffffffffffff16146122dd576040517f08c379a00000000000000000000000000000000000000000000000000000000081526004016122d490613a3b565b60405180910390fd5b876003600082815260200190815260200160002060050160009054906101000a900460ff16612341576040517f08c379a0000000000000000000000000000000000000000000000000000000008152600401612338906140c4565b60405180910390fd5b6000600360008b81526020019081526020016000209050888882600101918261236b929190614a51565b50868682600201918261237f929190614a51565b508484826003019182612393929190614a51565b50828160040181905550897fb79955c4fe62aba7063e3aea2d3c7d0338d2fedcd65e32b4e0a90333e35efc7b8a8a866040516123d193929190613ef3565b60405180910390a250505050505050505050565b600360205280600052604060002060009150905080600001549080600101805461240e90613c08565b80601f016020809104026020016040519081016040528092919081815260200182805461243a90613c08565b80156124875780601f1061245c57610100808354040283529160200191612487565b820191906000526020600020905b81548152906001019060200180831161246a57829003601f168201915b50505050509080600201805461249c90613c08565b80601f01602080910402602001604051908101604052809291908181526020018280546124c890613c08565b80156125155780601f106124ea57610100808354040283529160200191612515565b820191906000526020600020905b8154815290600101906020018083116124f857829003601f168201915b50505050509080600301805461252a90613c08565b80601f016020809104026020016040519081016040528092919081815260200182805461255690613c08565b80156125a35780601f10612578576101008083540402835291602001916125a3565b820191906000526020600020905b81548152906001019060200180831161258657829003601f168201915b5050505050908060040154908060050160009054906101000a900460ff16908060050160019054906101000a900473ffffffffffffffffffffffffffffffffffffffff16908060060154905088565b6060600480548060200260200160405190810160405280929190818152602001828054801561264057602002820191906000526020600020905b81548152602001906001019080831161262c575b5050505050905090565b60008054906101000a900473ffffffffffffffffffffffffffffffffffffffff1673ffffffffffffffffffffffffffffffffffffffff163373ffffffffffffffffffffffffffffffffffffffff16146126d8576040517f08c379a00000000000000000000000000000000000000000000000000000000081526004016126cf90613a3b565b60405180910390fd5b60005b8282905081101561295257600760008484848181106126fd576126fc614023565b5b90506020020160208101906127129190613117565b73ffffffffffffffffffffffffffffffffffffffff1673ffffffffffffffffffffffffffffffffffffffff16815260200190815260200160002060009054906101000a900460ff161580156127bb5750600073ffffffffffffffffffffffffffffffffffffffff1683838381811061278d5761278c614023565b5b90506020020160208101906127a29190613117565b73ffffffffffffffffffffffffffffffffffffffff1614155b1561293f576001600760008585858181106127d9576127d8614023565b5b90506020020160208101906127ee9190613117565b73ffffffffffffffffffffffffffffffffffffffff1673ffffffffffffffffffffffffffffffffffffffff16815260200190815260200160002060006101000a81548160ff021916908315150217905550600883838381811061285457612853614023565b5b90506020020160208101906128699190613117565b9080600181540180825580915050600190039060005260206000200160009091909190916101000a81548173ffffffffffffffffffffffffffffffffffffffff021916908373ffffffffffffffffffffffffffffffffffffffff1602179055508282828181106128dc576128db614023565b5b90506020020160208101906128f19190613117565b73ffffffffffffffffffffffffffffffffffffffff167fe29d35093005f4d575e1003753426b57a7f64378ba73332eef9c6ccc2b8decd642604051612936919061309e565b60405180910390a25b808061294a90613b62565b9150506126db565b505050565b61295f612ec4565b60036000838152602001908152602001600020604051806101000160405290816000820154815260200160018201805461299890613c08565b80601f01602080910402602001604051908101604052809291908181526020018280546129c490613c08565b8015612a115780601f106129e657610100808354040283529160200191612a11565b820191906000526020600020905b8154815290600101906020018083116129f457829003601f168201915b50505050508152602001600282018054612a2a90613c08565b80601f0160208091040260200160405190810160405280929190818152602001828054612a5690613c08565b8015612aa35780601f10612a7857610100808354040283529160200191612aa3565b820191906000526020600020905b815481529060010190602001808311612a8657829003601f168201915b50505050508152602001600382018054612abc90613c08565b80601f0160208091040260200160405190810160405280929190818152602001828054612ae890613c08565b8015612b355780601f10612b0a57610100808354040283529160200191612b35565b820191906000526020600020905b815481529060010190602001808311612b1857829003601f168201915b50505050508152602001600482015481526020016005820160009054906101000a900460ff161515151581526020016005820160019054906101000a900473ffffffffffffffffffffffffffffffffffffffff1673ffffffffffffffffffffffffffffffffffffffff1673ffffffffffffffffffffffffffffffffffffffff1681526020016006820154815250509050919050565b6060600a60008373ffffffffffffffffffffffffffffffffffffffff1673ffffffffffffffffffffffffffffffffffffffff168152602001908152602001600020805480602002602001604051908101604052809291908181526020018280548015612c5557602002820191906000526020600020905b815481526020019060010190808311612c41575b50505050509050919050565b60008054906101000a900473ffffffffffffffffffffffffffffffffffffffff1681565b6000810315612d3c5760008273ffffffffffffffffffffffffffffffffffffffff1682604051612cb4906149c5565b60006040518083038185875af1925050503d8060008114612cf1576040519150601f19603f3d011682016040523d82523d6000602084013e612cf6565b606091505b5050905080612d3a576040517f08c379a0000000000000000000000000000000000000000000000000000000008152600401612d3190614b93565b60405180910390fd5b505b5050565b600060096000858152602001908152602001600020905060005b8180549050811015612e4257600060056000848481548110612d7f57612d7e614023565b5b90600052602060002001548152602001908152602001600020905060006002811115612dae57612dad6131b6565b5b8160060160009054906101000a900460ff166002811115612dd257612dd16131b6565b5b03612e2e57806004015485108015612ded5750806003015484115b15612e2d576040517f08c379a0000000000000000000000000000000000000000000000000000000008152600401612e2490614c25565b60405180910390fd5b5b508080612e3a90613b62565b915050612d5a565b5050505050565b6040518061014001604052806000815260200160008152602001600073ffffffffffffffffffffffffffffffffffffffff16815260200160008152602001600081526020016000815260200160006002811115612ea957612ea86131b6565b5b81526020016000815260200160008152602001600081525090565b6040518061010001604052806000815260200160608152602001606081526020016060815260200160008152602001600015158152602001600073ffffffffffffffffffffffffffffffffffffffff168152602001600081525090565b600080fd5b600080fd5b600080fd5b600080fd5b600080fd5b60008083601f840112612f5057612f4f612f2b565b5b8235905067ffffffffffffffff811115612f6d57612f6c612f30565b5b602083019150836001820283011115612f8957612f88612f35565b5b9250929050565b6000819050919050565b612fa381612f90565b8114612fae57600080fd5b50565b600081359050612fc081612f9a565b92915050565b60008060008060008060006080888a031215612fe557612fe4612f21565b5b600088013567ffffffffffffffff81111561300357613002612f26565b5b61300f8a828b01612f3a565b9750975050602088013567ffffffffffffffff81111561303257613031612f26565b5b61303e8a828b01612f3a565b9550955050604088013567ffffffffffffffff81111561306157613060612f26565b5b61306d8a828b01612f3a565b935093505060606130808a828b01612fb1565b91505092959891949750929550565b61309881612f90565b82525050565b60006020820190506130b3600083018461308f565b92915050565b600073ffffffffffffffffffffffffffffffffffffffff82169050919050565b60006130e4826130b9565b9050919050565b6130f4816130d9565b81146130ff57600080fd5b50565b600081359050613111816130eb565b92915050565b60006020828403121561312d5761312c612f21565b5b600061313b84828501613102565b91505092915050565b60008115159050919050565b61315981613144565b82525050565b60006020820190506131746000830184613150565b92915050565b6000602082840312156131905761318f612f21565b5b600061319e84828501612fb1565b91505092915050565b6131b0816130d9565b82525050565b7f4e487b7100000000000000000000000000000000000000000000000000000000600052602160045260246000fd5b600381106131f6576131f56131b6565b5b50565b6000819050613207826131e5565b919050565b6000613217826131f9565b9050919050565b6132278161320c565b82525050565b600061014082019050613243600083018d61308f565b613250602083018c61308f565b61325d604083018b6131a7565b61326a606083018a61308f565b613277608083018961308f565b61328460a083018861308f565b61329160c083018761321e565b61329e60e083018661308f565b6132ac61010083018561308f565b6132ba61012083018461308f565b9b9a5050505050505050505050565b6000806000606084860312156132e2576132e1612f21565b5b60006132f086828701612fb1565b935050602061330186828701612fb1565b925050604061331286828701612fb1565b9150509250925092565b61332581612f90565b82525050565b613334816130d9565b82525050565b6133438161320c565b82525050565b61014082016000820151613360600085018261331c565b506020820151613373602085018261331c565b506040820151613386604085018261332b565b506060820151613399606085018261331c565b5060808201516133ac608085018261331c565b5060a08201516133bf60a085018261331c565b5060c08201516133d260c085018261333a565b5060e08201516133e560e085018261331c565b506101008201516133fa61010085018261331c565b5061012082015161340f61012085018261331c565b50505050565b60006101408201905061342b6000830184613349565b92915050565b600081519050919050565b600082825260208201905092915050565b6000819050602082019050919050565b6000613469838361332b565b60208301905092915050565b6000602082019050919050565b600061348d82613431565b613497818561343c565b93506134a28361344d565b8060005b838110156134d35781516134ba888261345d565b97506134c583613475565b9250506001810190506134a6565b5085935050505092915050565b600060208201905081810360008301526134fa8184613482565b905092915050565b600081519050919050565b600082825260208201905092915050565b6000819050602082019050919050565b600061353a838361331c565b60208301905092915050565b6000602082019050919050565b600061355e82613502565b613568818561350d565b93506135738361351e565b8060005b838110156135a457815161358b888261352e565b975061359683613546565b925050600181019050613577565b5085935050505092915050565b600060208201905081810360008301526135cb8184613553565b905092915050565b60006020820190506135e860008301846131a7565b92915050565b60008060008060008060008060a0898b03121561360e5761360d612f21565b5b600061361c8b828c01612fb1565b985050602089013567ffffffffffffffff81111561363d5761363c612f26565b5b6136498b828c01612f3a565b9750975050604089013567ffffffffffffffff81111561366c5761366b612f26565b5b6136788b828c01612f3a565b9550955050606089013567ffffffffffffffff81111561369b5761369a612f26565b5b6136a78b828c01612f3a565b935093505060806136ba8b828c01612fb1565b9150509295985092959890939650565b600081519050919050565b600082825260208201905092915050565b60005b838110156137045780820151818401526020810190506136e9565b60008484015250505050565b6000601f19601f8301169050919050565b600061372c826136ca565b61373681856136d5565b93506137468185602086016136e6565b61374f81613710565b840191505092915050565b600061010082019050613770600083018b61308f565b8181036020830152613782818a613721565b905081810360408301526137968189613721565b905081810360608301526137aa8188613721565b90506137b9608083018761308f565b6137c660a0830186613150565b6137d360c08301856131a7565b6137e060e083018461308f565b9998505050505050505050565b60008083601f84011261380357613802612f2b565b5b8235905067ffffffffffffffff8111156138205761381f612f30565b5b60208301915083602082028301111561383c5761383b612f35565b5b9250929050565b6000806020838503121561385a57613859612f21565b5b600083013567ffffffffffffffff81111561387857613877612f26565b5b613884858286016137ed565b92509250509250929050565b600082825260208201905092915050565b60006138ac826136ca565b6138b68185613890565b93506138c68185602086016136e6565b6138cf81613710565b840191505092915050565b6138e381613144565b82525050565b600061010083016000830151613902600086018261331c565b506020830151848203602086015261391a82826138a1565b9150506040830151848203604086015261393482826138a1565b9150506060830151848203606086015261394e82826138a1565b9150506080830151613963608086018261331c565b5060a083015161397660a08601826138da565b5060c083015161398960c086018261332b565b5060e083015161399c60e086018261331c565b508091505092915050565b600060208201905081810360008301526139c181846138e9565b905092915050565b7f43616d707573426f6f6b696e673a2063616c6c6572206973206e6f742061646d60008201527f696e000000000000000000000000000000000000000000000000000000000000602082015250565b6000613a256022836136d5565b9150613a30826139c9565b604082019050919050565b60006020820190508181036000830152613a5481613a18565b9050919050565b7f43616d707573426f6f6b696e673a206e616d6520726571756972656400000000600082015250565b6000613a91601c836136d5565b9150613a9c82613a5b565b602082019050919050565b60006020820190508181036000830152613ac081613a84565b9050919050565b7f43616d707573426f6f6b696e673a20666565206d757374206265203e20300000600082015250565b6000613afd601e836136d5565b9150613b0882613ac7565b602082019050919050565b60006020820190508181036000830152613b2c81613af0565b9050919050565b7f4e487b7100000000000000000000000000000000000000000000000000000000600052601160045260246000fd5b6000613b6d82612f90565b91507fffffffffffffffffffffffffffffffffffffffffffffffffffffffffffffffff8203613b9f57613b9e613b33565b5b600182019050919050565b7f4e487b7100000000000000000000000000000000000000000000000000000000600052604160045260246000fd5b7f4e487b7100000000000000000000000000000000000000000000000000000000600052602260045260246000fd5b60006002820490506001821680613c2057607f821691505b602082108103613c3357613c32613bd9565b5b50919050565b60008190508160005260206000209050919050565b60006020601f8301049050919050565b600082821b905092915050565b600060088302613c9b7fffffffffffffffffffffffffffffffffffffffffffffffffffffffffffffffff82613c5e565b613ca58683613c5e565b95508019841693508086168417925050509392505050565b6000819050919050565b6000613ce2613cdd613cd884612f90565b613cbd565b612f90565b9050919050565b6000819050919050565b613cfc83613cc7565b613d10613d0882613ce9565b848454613c6b565b825550505050565b600090565b613d25613d18565b613d30818484613cf3565b505050565b5b81811015613d5457613d49600082613d1d565b600181019050613d36565b5050565b601f821115613d9957613d6a81613c39565b613d7384613c4e565b81016020851015613d82578190505b613d96613d8e85613c4e565b830182613d35565b50505b505050565b600082821c905092915050565b6000613dbc60001984600802613d9e565b1980831691505092915050565b6000613dd58383613dab565b9150826002028217905092915050565b613dee826136ca565b67ffffffffffffffff811115613e0757613e06613baa565b5b613e118254613c08565b613e1c828285613d58565b600060209050601f831160018114613e4f5760008415613e3d578287015190505b613e478582613dc9565b865550613eaf565b601f198416613e5d86613c39565b60005b82811015613e8557848901518255600182019150602085019450602081019050613e60565b86831015613ea25784890151613e9e601f891682613dab565b8355505b6001600288020188555050505b505050505050565b82818337600083830152505050565b6000613ed283856136d5565b9350613edf838584613eb7565b613ee883613710565b840190509392505050565b60006040820190508181036000830152613f0e818587613ec6565b9050613f1d602083018461308f565b949350505050565b7f43616d707573426f6f6b696e673a207a65726f20616464726573730000000000600082015250565b6000613f5b601b836136d5565b9150613f6682613f25565b602082019050919050565b60006020820190508181036000830152613f8a81613f4e565b9050919050565b7f43616d707573426f6f6b696e673a20616c72656164792072656769737465726560008201527f6400000000000000000000000000000000000000000000000000000000000000602082015250565b6000613fed6021836136d5565b9150613ff882613f91565b604082019050919050565b6000602082019050818103600083015261401c81613fe0565b9050919050565b7f4e487b7100000000000000000000000000000000000000000000000000000000600052603260045260246000fd5b7f43616d707573426f6f6b696e673a206173736574206e6f7420666f756e64206f60008201527f7220696e61637469766500000000000000000000000000000000000000000000602082015250565b60006140ae602a836136d5565b91506140b982614052565b604082019050919050565b600060208201905081810360008301526140dd816140a1565b9050919050565b7f43616d707573426f6f6b696e673a2077616c6c6574206e6f742072656769737460008201527f6572656400000000000000000000000000000000000000000000000000000000602082015250565b60006141406024836136d5565b915061414b826140e4565b604082019050919050565b6000602082019050818103600083015261416f81614133565b9050919050565b7f43616d707573426f6f6b696e673a20626f6f6b696e67206e6f7420666f756e64600082015250565b60006141ac6020836136d5565b91506141b782614176565b602082019050919050565b600060208201905081810360008301526141db8161419f565b9050919050565b7f43616d707573426f6f6b696e673a206e6f7420796f757220626f6f6b696e6700600082015250565b6000614218601f836136d5565b9150614223826141e2565b602082019050919050565b600060208201905081810360008301526142478161420b565b9050919050565b7f43616d707573426f6f6b696e673a20626f6f6b696e67206e6f7420616374697660008201527f6500000000000000000000000000000000000000000000000000000000000000602082015250565b60006142aa6021836136d5565b91506142b58261424e565b604082019050919050565b600060208201905081810360008301526142d98161429d565b9050919050565b7f43616d707573426f6f6b696e673a20736c6f7420616c7265616479207374617260008201527f7465640000000000000000000000000000000000000000000000000000000000602082015250565b600061433c6023836136d5565b9150614347826142e0565b604082019050919050565b6000602082019050818103600083015261436b8161432f565b9050919050565b600061437d82612f90565b915061438883612f90565b92508282019050808211156143a05761439f613b33565b5b92915050565b7f4e487b7100000000000000000000000000000000000000000000000000000000600052601260045260246000fd5b60006143e082612f90565b91506143eb83612f90565b9250826143fb576143fa6143a6565b5b828204905092915050565b7f43616d707573426f6f6b696e673a2073746172742074696d6520696e2074686560008201527f2070617374000000000000000000000000000000000000000000000000000000602082015250565b60006144626025836136d5565b915061446d82614406565b604082019050919050565b6000602082019050818103600083015261449181614455565b9050919050565b7f43616d707573426f6f6b696e673a20656e64206d75737420626520616674657260008201527f2073746172740000000000000000000000000000000000000000000000000000602082015250565b60006144f46026836136d5565b91506144ff82614498565b604082019050919050565b60006020820190508181036000830152614523816144e7565b9050919050565b600061453582612f90565b915061454083612f90565b925082820390508181111561455857614557613b33565b5b92915050565b7f43616d707573426f6f6b696e673a206d696e696d756d203120686f7572000000600082015250565b6000614594601d836136d5565b915061459f8261455e565b602082019050919050565b600060208201905081810360008301526145c381614587565b9050919050565b60006145d582612f90565b91506145e083612f90565b9250826145f0576145ef6143a6565b5b828206905092915050565b7f43616d707573426f6f6b696e673a206475726174696f6e206d7573742062652060008201527f77686f6c6520686f757273000000000000000000000000000000000000000000602082015250565b6000614657602b836136d5565b9150614662826145fb565b604082019050919050565b600060208201905081810360008301526146868161464a565b9050919050565b600061469882612f90565b91506146a383612f90565b92508282026146b181612f90565b915082820484148315176146c8576146c7613b33565b5b5092915050565b7f43616d707573426f6f6b696e673a20696e636f72726563742045544820616d6f60008201527f756e740000000000000000000000000000000000000000000000000000000000602082015250565b600061472b6023836136d5565b9150614736826146cf565b604082019050919050565b6000602082019050818103600083015261475a8161471e565b9050919050565b6000606082019050614776600083018661308f565b614783602083018561308f565b614790604083018461308f565b949350505050565b7f43616d707573426f6f6b696e673a206e6f742072656769737465726564000000600082015250565b60006147ce601d836136d5565b91506147d982614798565b602082019050919050565b600060208201905081810360008301526147fd816147c1565b9050919050565b7f43616d707573426f6f6b696e673a2063616e6e6f742072656d6f76652061646d60008201527f696e000000000000000000000000000000000000000000000000000000000000602082015250565b60006148606022836136d5565b915061486b82614804565b604082019050919050565b6000602082019050818103600083015261488f81614853565b9050919050565b7f656e64206d757374206265206166746572207374617274000000000000000000600082015250565b60006148cc6017836136d5565b91506148d782614896565b602082019050919050565b600060208201905081810360008301526148fb816148bf565b9050919050565b7f43616d707573426f6f6b696e673a206e6f7468696e6720746f2077697468647260008201527f6177000000000000000000000000000000000000000000000000000000000000602082015250565b600061495e6022836136d5565b915061496982614902565b604082019050919050565b6000602082019050818103600083015261498d81614951565b9050919050565b600081905092915050565b50565b60006149af600083614994565b91506149ba8261499f565b600082019050919050565b60006149d0826149a2565b9150819050919050565b7f43616d707573426f6f6b696e673a207769746864726177206661696c65640000600082015250565b6000614a10601e836136d5565b9150614a1b826149da565b602082019050919050565b60006020820190508181036000830152614a3f81614a03565b9050919050565b600082905092915050565b614a5b8383614a46565b67ffffffffffffffff811115614a7457614a73613baa565b5b614a7e8254613c08565b614a89828285613d58565b6000601f831160018114614ab85760008415614aa6578287013590505b614ab08582613dc9565b865550614b18565b601f198416614ac686613c39565b60005b82811015614aee57848901358255600182019150602085019450602081019050614ac9565b86831015614b0b5784890135614b07601f891682613dab565b8355505b6001600288020188555050505b50505050505050565b7f43616d707573426f6f6b696e673a20726566756e64207472616e73666572206660008201527f61696c6564000000000000000000000000000000000000000000000000000000602082015250565b6000614b7d6025836136d5565b9150614b8882614b21565b604082019050919050565b60006020820190508181036000830152614bac81614b70565b9050919050565b7f43616d707573426f6f6b696e673a20736c6f7420636f6e666c6963742077697460008201527f68206578697374696e6720626f6f6b696e670000000000000000000000000000602082015250565b6000614c0f6032836136d5565b9150614c1a82614bb3565b604082019050919050565b60006020820190508181036000830152614c3e81614c02565b905091905056fea26469706673582212209694528876ae2063cbe4a4132792241e3d3e3b30711e18ec8dc3b0419172219e64736f6c63430008130033",
  "immutableReferences": {},
  "source": "// SPDX-License-Identifier: MIT\npragma solidity ^0.8.19;\n\n/**\n * @title CampusAssetBooking\n * @notice Decentralized campus resource booking with access control,\n *         conflict detection, and tiered refund policy.\n * @dev Deploy on Ganache (chainId 1337). Admin is msg.sender at deployment.\n */\ncontract CampusAssetBooking {\n\n    // ─────────────────────────────────────────────────────────────────────────\n    // DATA STRUCTURES\n    // ─────────────────────────────────────────────────────────────────────────\n\n    struct Asset {\n        uint256 id;\n        string  name;\n        string  description;\n        string  category;        // e.g. \"Lab\", \"Hall\", \"Equipment\", \"Court\"\n        uint256 hourlyFeeWei;    // price per hour in wei\n        bool    active;\n        address registeredBy;\n        uint256 createdAt;\n    }\n\n    enum BookingStatus { Active, CancelledByAdmin, CancelledByUser }\n\n    struct Booking {\n        uint256 id;\n        uint256 assetId;\n        address bookedBy;\n        uint256 startTime;       // unix timestamp\n        uint256 endTime;         // unix timestamp\n        uint256 amountPaid;      // wei paid\n        BookingStatus status;\n        uint256 createdAt;\n        uint256 cancelledAt;\n        uint256 refundAmount;\n    }\n\n    // ─────────────────────────────────────────────────────────────────────────\n    // STATE\n    // ─────────────────────────────────────────────────────────────────────────\n\n    address public admin;\n\n    uint256 private _nextAssetId   = 1;\n    uint256 private _nextBookingId = 1;\n\n    // assetId → Asset\n    mapping(uint256 => Asset) public assets;\n    uint256[] public assetIds;\n\n    // bookingId → Booking\n    mapping(uint256 => Booking) public bookings;\n    uint256[] public bookingIds;\n\n    // Registered user wallets\n    mapping(address => bool) public registeredUsers;\n    address[] public registeredUserList;\n\n    // assetId → list of active booking ids (for conflict check)\n    mapping(uint256 => uint256[]) private _assetBookings;\n\n    // user → booking ids\n    mapping(address => uint256[]) private _userBookings;\n\n    // ─────────────────────────────────────────────────────────────────────────\n    // EVENTS\n    // ─────────────────────────────────────────────────────────────────────────\n\n    event UserRegistered(address indexed user, uint256 timestamp);\n    event UserRemoved(address indexed user, uint256 timestamp);\n    event AssetRegistered(uint256 indexed assetId, string name, uint256 hourlyFeeWei);\n    event AssetUpdated(uint256 indexed assetId, string name, uint256 hourlyFeeWei);\n    event AssetDeactivated(uint256 indexed assetId);\n    event BookingCreated(\n        uint256 indexed bookingId,\n        uint256 indexed assetId,\n        address indexed bookedBy,\n        uint256 startTime,\n        uint256 endTime,\n        uint256 amountPaid\n    );\n    event BookingCancelledByAdmin(uint256 indexed bookingId, uint256 refund);\n    event BookingCancelledByUser(uint256 indexed bookingId, uint256 refund);\n\n    // ─────────────────────────────────────────────────────────────────────────\n    // MODIFIERS\n    // ─────────────────────────────────────────────────────────────────────────\n\n    modifier onlyAdmin() {\n        require(msg.sender == admin, \"CampusBooking: caller is not admin\");\n        _;\n    }\n\n    modifier onlyRegistered() {\n        require(registeredUsers[msg.sender], \"CampusBooking: wallet not registered\");\n        _;\n    }\n\n    modifier assetExists(uint256 assetId) {\n        require(assets[assetId].active, \"CampusBooking: asset not found or inactive\");\n        _;\n    }\n\n    modifier bookingExists(uint256 bookingId) {\n        require(bookingId > 0 && bookingId < _nextBookingId, \"CampusBooking: booking not found\");\n        _;\n    }\n\n    // ─────────────────────────────────────────────────────────────────────────\n    // CONSTRUCTOR\n    // ─────────────────────────────────────────────────────────────────────────\n\n    constructor() {\n        admin = msg.sender;\n        // Admin is auto-registered so they can also make bookings if needed\n        registeredUsers[msg.sender] = true;\n        registeredUserList.push(msg.sender);\n    }\n\n    // ─────────────────────────────────────────────────────────────────────────\n    // ADMIN: USER MANAGEMENT\n    // ─────────────────────────────────────────────────────────────────────────\n\n    /**\n     * @notice Register a wallet so it can book assets.\n     */\n    function registerUser(address user) external onlyAdmin {\n        require(user != address(0), \"CampusBooking: zero address\");\n        require(!registeredUsers[user], \"CampusBooking: already registered\");\n        registeredUsers[user] = true;\n        registeredUserList.push(user);\n        emit UserRegistered(user, block.timestamp);\n    }\n\n    /**\n     * @notice Batch-register multiple wallets.\n     */\n    function registerUsers(address[] calldata users) external onlyAdmin {\n        for (uint256 i = 0; i < users.length; i++) {\n            if (!registeredUsers[users[i]] && users[i] != address(0)) {\n                registeredUsers[users[i]] = true;\n                registeredUserList.push(users[i]);\n                emit UserRegistered(users[i], block.timestamp);\n            }\n        }\n    }\n\n    /**\n     * @notice Revoke a wallet's booking privileges.\n     */\n    function removeUser(address user) external onlyAdmin {\n        require(registeredUsers[user], \"CampusBooking: not registered\");\n        require(user != admin, \"CampusBooking: cannot remove admin\");\n        registeredUsers[user] = false;\n        emit UserRemoved(user, block.timestamp);\n    }\n\n    // ─────────────────────────────────────────────────────────────────────────\n    // ADMIN: ASSET MANAGEMENT\n    // ─────────────────────────────────────────────────────────────────────────\n\n    /**\n     * @notice Register a new bookable asset.\n     * @param name         Human-readable name (e.g. \"Seminar Hall A\")\n     * @param description  Details about the asset\n     * @param category     Category tag\n     * @param hourlyFeeWei Fee per hour in wei\n     */\n    function registerAsset(\n        string calldata name,\n        string calldata description,\n        string calldata category,\n        uint256 hourlyFeeWei\n    ) external onlyAdmin returns (uint256 assetId) {\n        require(bytes(name).length > 0, \"CampusBooking: name required\");\n        require(hourlyFeeWei > 0,       \"CampusBooking: fee must be > 0\");\n\n        assetId = _nextAssetId++;\n        assets[assetId] = Asset({\n            id:            assetId,\n            name:          name,\n            description:   description,\n            category:      category,\n            hourlyFeeWei:  hourlyFeeWei,\n            active:        true,\n            registeredBy:  msg.sender,\n            createdAt:     block.timestamp\n        });\n        assetIds.push(assetId);\n        emit AssetRegistered(assetId, name, hourlyFeeWei);\n    }\n\n    /**\n     * @notice Update asset metadata and/or fee (does not affect existing bookings).\n     */\n    function updateAsset(\n        uint256 assetId,\n        string calldata name,\n        string calldata description,\n        string calldata category,\n        uint256 hourlyFeeWei\n    ) external onlyAdmin assetExists(assetId) {\n        Asset storage a = assets[assetId];\n        a.name         = name;\n        a.description  = description;\n        a.category     = category;\n        a.hourlyFeeWei = hourlyFeeWei;\n        emit AssetUpdated(assetId, name, hourlyFeeWei);\n    }\n\n    /**\n     * @notice Deactivate an asset (soft-delete, history preserved).\n     */\n    function deactivateAsset(uint256 assetId) external onlyAdmin assetExists(assetId) {\n        assets[assetId].active = false;\n        emit AssetDeactivated(assetId);\n    }\n\n    // ─────────────────────────────────────────────────────────────────────────\n    // BOOKING\n    // ─────────────────────────────────────────────────────────────────────────\n\n    /**\n     * @notice Book an asset for a time slot.\n     * @param assetId   Target asset\n     * @param startTime Unix timestamp for slot start\n     * @param endTime   Unix timestamp for slot end (must be after startTime)\n     *\n     * msg.value must equal (endTime - startTime) / 3600 * hourlyFeeWei\n     * (integer hours only, minimum 1 hour).\n     *\n     * Reverts on overlap with any existing active booking.\n     * Excess ETH is NOT accepted — must send exact amount.\n     */\n    function bookAsset(\n        uint256 assetId,\n        uint256 startTime,\n        uint256 endTime\n    ) external payable onlyRegistered assetExists(assetId) returns (uint256 bookingId) {\n\n        // ── Validate times ──────────────────────────────────────────────────\n        require(startTime >= block.timestamp, \"CampusBooking: start time in the past\");\n        require(endTime > startTime,          \"CampusBooking: end must be after start\");\n        uint256 durationSecs = endTime - startTime;\n        require(durationSecs >= 3600,         \"CampusBooking: minimum 1 hour\");\n        require(durationSecs % 3600 == 0,     \"CampusBooking: duration must be whole hours\");\n\n        // ── Validate payment ────────────────────────────────────────────────\n        uint256 hours_  = durationSecs / 3600;\n        uint256 required = hours_ * assets[assetId].hourlyFeeWei;\n        require(msg.value == required, \"CampusBooking: incorrect ETH amount\");\n\n        // ── Conflict detection ──────────────────────────────────────────────\n        _rejectIfConflict(assetId, startTime, endTime);\n\n        // ── Record booking ──────────────────────────────────────────────────\n        bookingId = _nextBookingId++;\n        bookings[bookingId] = Booking({\n            id:           bookingId,\n            assetId:      assetId,\n            bookedBy:     msg.sender,\n            startTime:    startTime,\n            endTime:      endTime,\n            amountPaid:   msg.value,\n            status:       BookingStatus.Active,\n            createdAt:    block.timestamp,\n            cancelledAt:  0,\n            refundAmount: 0\n        });\n        bookingIds.push(bookingId);\n        _assetBookings[assetId].push(bookingId);\n        _userBookings[msg.sender].push(bookingId);\n\n        emit BookingCreated(bookingId, assetId, msg.sender, startTime, endTime, msg.value);\n    }\n\n    // ─────────────────────────────────────────────────────────────────────────\n    // CANCELLATION\n    // ─────────────────────────────────────────────────────────────────────────\n\n    /**\n     * @notice Admin cancels any booking → 100% refund.\n     */\n    function adminCancelBooking(uint256 bookingId)\n        external\n        onlyAdmin\n        bookingExists(bookingId)\n    {\n        Booking storage b = bookings[bookingId];\n        require(b.status == BookingStatus.Active, \"CampusBooking: booking not active\");\n\n        uint256 refund = b.amountPaid;\n        b.status       = BookingStatus.CancelledByAdmin;\n        b.cancelledAt  = block.timestamp;\n        b.refundAmount = refund;\n\n        _sendRefund(b.bookedBy, refund);\n        emit BookingCancelledByAdmin(bookingId, refund);\n    }\n\n    /**\n     * @notice User cancels their own booking.\n     *  - > 24 hours before start → 100% refund\n     *  - ≤ 24 hours before start → 50% refund (remainder kept by contract)\n     *  - After slot start → no cancellation allowed\n     */\n    function userCancelBooking(uint256 bookingId)\n        external\n        onlyRegistered\n        bookingExists(bookingId)\n    {\n        Booking storage b = bookings[bookingId];\n        require(b.bookedBy == msg.sender,         \"CampusBooking: not your booking\");\n        require(b.status == BookingStatus.Active,  \"CampusBooking: booking not active\");\n        require(block.timestamp < b.startTime,     \"CampusBooking: slot already started\");\n\n        uint256 refund;\n        if (block.timestamp + 24 hours <= b.startTime) {\n            // More than 24 hours before → full refund\n            refund = b.amountPaid;\n        } else {\n            // Within 24 hours → 50% refund\n            refund = b.amountPaid / 2;\n        }\n\n        b.status       = BookingStatus.CancelledByUser;\n        b.cancelledAt  = block.timestamp;\n        b.refundAmount = refund;\n\n        _sendRefund(msg.sender, refund);\n        emit BookingCancelledByUser(bookingId, refund);\n    }\n\n    // ─────────────────────────────────────────────────────────────────────────\n    // VIEW FUNCTIONS\n    // ─────────────────────────────────────────────────────────────────────────\n\n    function getAsset(uint256 assetId) external view returns (Asset memory) {\n        return assets[assetId];\n    }\n\n    function getAllAssetIds() external view returns (uint256[] memory) {\n        return assetIds;\n    }\n\n    function getBooking(uint256 bookingId) external view returns (Booking memory) {\n        return bookings[bookingId];\n    }\n\n    function getAllBookingIds() external view returns (uint256[] memory) {\n        return bookingIds;\n    }\n\n    function getAssetBookings(uint256 assetId) external view returns (uint256[] memory) {\n        return _assetBookings[assetId];\n    }\n\n    function getUserBookings(address user) external view returns (uint256[] memory) {\n        return _userBookings[user];\n    }\n\n    function getRegisteredUsers() external view returns (address[] memory) {\n        return registeredUserList;\n    }\n\n    /**\n     * @notice Compute the required ETH for a booking (helper for frontend).\n     */\n    function computeFee(uint256 assetId, uint256 startTime, uint256 endTime)\n        external view assetExists(assetId) returns (uint256 fee)\n    {\n        require(endTime > startTime, \"end must be after start\");\n        uint256 hours_ = (endTime - startTime) / 3600;\n        fee = hours_ * assets[assetId].hourlyFeeWei;\n    }\n\n    /**\n     * @notice Check if a slot is available for an asset.\n     */\n    function isSlotAvailable(uint256 assetId, uint256 startTime, uint256 endTime)\n        external view returns (bool)\n    {\n        uint256[] storage ids = _assetBookings[assetId];\n        for (uint256 i = 0; i < ids.length; i++) {\n            Booking storage b = bookings[ids[i]];\n            if (b.status == BookingStatus.Active) {\n                if (startTime < b.endTime && endTime > b.startTime) {\n                    return false;\n                }\n            }\n        }\n        return true;\n    }\n\n    /**\n     * @notice Returns contract's accumulated ETH (penalty amounts from 50% refunds).\n     */\n    function contractBalance() external view returns (uint256) {\n        return address(this).balance;\n    }\n\n    /**\n     * @notice Admin can withdraw penalty funds.\n     */\n    function withdrawPenalties() external onlyAdmin {\n        uint256 bal = address(this).balance;\n        require(bal > 0, \"CampusBooking: nothing to withdraw\");\n        (bool ok, ) = admin.call{value: bal}(\"\");\n        require(ok, \"CampusBooking: withdraw failed\");\n    }\n\n    // ─────────────────────────────────────────────────────────────────────────\n    // INTERNAL HELPERS\n    // ─────────────────────────────────────────────────────────────────────────\n\n    /**\n     * @dev Reverts if [startTime, endTime) overlaps any active booking for assetId.\n     */\n    function _rejectIfConflict(uint256 assetId, uint256 startTime, uint256 endTime) internal view {\n        uint256[] storage ids = _assetBookings[assetId];\n        for (uint256 i = 0; i < ids.length; i++) {\n            Booking storage b = bookings[ids[i]];\n            if (b.status == BookingStatus.Active) {\n                // Overlap: new start < existing end AND new end > existing start\n                if (startTime < b.endTime && endTime > b.startTime) {\n                    revert(\"CampusBooking: slot conflict with existing booking\");\n                }\n            }\n        }\n    }\n\n    /**\n     * @dev Sends ETH, reverts on failure.\n     */\n    function _sendRefund(address to, uint256 amount) internal {\n        if (amount == 0) return;\n        (bool ok, ) = to.call{value: amount}(\"\");\n        require(ok, \"CampusBooking: refund transfer failed\");\n    }\n\n    // Accept plain ETH (not used in normal flow)\n    receive() external payable {}\n}\n",
  "sourcePath": "/app/contracts/CampusAssetBooking.sol",
  "compiler": {
    "name": "solc",
    "version": "0.8.19+commit.7dd6d404.Emscripten.clang"
  },
  "schemaVersion": "3.4.16",
  "updatedAt": "2026-04-20T17:26:43.489Z",
  "networkType": "ethereum",
  "devdoc": {
    "details": "Deploy on Ganache (chainId 1337). Admin is msg.sender at deployment.",
    "kind": "dev",
    "methods": {
      "bookAsset(uint256,uint256,uint256)": {
        "params": {
          "assetId": "Target asset",
          "endTime": "Unix timestamp for slot end (must be after startTime) msg.value must equal (endTime - startTime) / 3600 * hourlyFeeWei (integer hours only, minimum 1 hour). Reverts on overlap with any existing active booking. Excess ETH is NOT accepted — must send exact amount.",
          "startTime": "Unix timestamp for slot start"
        }
      },
      "registerAsset(string,string,string,uint256)": {
        "params": {
          "category": "Category tag",
          "description": "Details about the asset",
          "hourlyFeeWei": "Fee per hour in wei",
          "name": "Human-readable name (e.g. \"Seminar Hall A\")"
        }
      }
    },
    "title": "CampusAssetBooking",
    "version": 1
  },
  "userdoc": {
    "kind": "user",
    "methods": {
      "adminCancelBooking(uint256)": {
        "notice": "Admin cancels any booking → 100% refund."
      },
      "bookAsset(uint256,uint256,uint256)": {
        "notice": "Book an asset for a time slot."
      },
      "computeFee(uint256,uint256,uint256)": {
        "notice": "Compute the required ETH for a booking (helper for frontend)."
      },
      "contractBalance()": {
        "notice": "Returns contract's accumulated ETH (penalty amounts from 50% refunds)."
      },
      "deactivateAsset(uint256)": {
        "notice": "Deactivate an asset (soft-delete, history preserved)."
      },
      "isSlotAvailable(uint256,uint256,uint256)": {
        "notice": "Check if a slot is available for an asset."
      },
      "registerAsset(string,string,string,uint256)": {
        "notice": "Register a new bookable asset."
      },
      "registerUser(address)": {
        "notice": "Register a wallet so it can book assets."
      },
      "registerUsers(address[])": {
        "notice": "Batch-register multiple wallets."
      },
      "removeUser(address)": {
        "notice": "Revoke a wallet's booking privileges."
      },
      "updateAsset(uint256,string,string,string,uint256)": {
        "notice": "Update asset metadata and/or fee (does not affect existing bookings)."
      },
      "userCancelBooking(uint256)": {
        "notice": "User cancels their own booking.  - > 24 hours before start → 100% refund  - ≤ 24 hours before start → 50% refund (remainder kept by contract)  - After slot start → no cancellation allowed"
      },
      "withdrawPenalties()": {
        "notice": "Admin can withdraw penalty funds."
      }
    },
    "notice": "Decentralized campus resource booking with access control,         conflict detection, and tiered refund policy.",
    "version": 1
  }
}